{
	"contracts/SelfDestructSender.sol": {
		"SelfDestructSender": {
			"abi": [
				{
					"inputs": [
						{
							"internalType": "address payable",
							"name": "_etherVaultAddress",
							"type": "address"
						}
					],
					"stateMutability": "nonpayable",
					"type": "constructor"
				},
				{
					"inputs": [],
					"name": "REQUIRED_AMOUNT",
					"outputs": [
						{
							"internalType": "uint256",
							"name": "",
							"type": "uint256"
						}
					],
					"stateMutability": "view",
					"type": "function"
				},
				{
					"inputs": [],
					"name": "getBalance",
					"outputs": [
						{
							"internalType": "uint256",
							"name": "",
							"type": "uint256"
						}
					],
					"stateMutability": "view",
					"type": "function"
				},
				{
					"inputs": [],
					"name": "triggerSelfDestruct",
					"outputs": [],
					"stateMutability": "nonpayable",
					"type": "function"
				},
				{
					"stateMutability": "payable",
					"type": "receive"
				}
			],
			"devdoc": {
				"details": "A simple contract to receive Ether and then self-destruct, sending its balance to a target address. Used for the EtherVault assignment self-destruct challenge.",
				"kind": "dev",
				"methods": {
					"constructor": {
						"details": "Constructor sets the target EtherVault address.",
						"params": {
							"_etherVaultAddress": "The address of the deployed EtherVault contract."
						}
					},
					"getBalance()": {
						"details": "Optional: A function to check the contract's current balance."
					},
					"triggerSelfDestruct()": {
						"details": "Triggers the self-destruct mechanism. This sends the contract's entire balance to the etherVaultAddress and removes the contract code from the blockchain (in pre-EIP-6780 behavior). Includes the specific require check required by the assignment. NOTE: 'selfdestruct' is deprecated and its behavior changed with EIP-6780 (Cancun hard fork). For new contracts deployed post-Cancun, it might not fully remove contract code/storage unless created in the same transaction. However, this assignment specifically requires using 'selfdestruct' with a particular error message, indicating it's testing understanding of this concept as relevant to the challenge environment. Therefore, we use 'selfdestruct' here as required by the assignment instructions."
					}
				},
				"title": "SelfDestructSender",
				"version": 1
			},
			"evm": {
				"assembly": "    /* \"contracts/SelfDestructSender.sol\":324:2945  contract SelfDestructSender {... */\n  mstore(0x40, 0xa0)\n    /* \"contracts/SelfDestructSender.sol\":792:987  constructor(address payable _etherVaultAddress) {... */\n  callvalue\n  dup1\n  iszero\n  tag_1\n  jumpi\n  revert(0x00, 0x00)\ntag_1:\n  pop\n  mload(0x40)\n  sub(codesize, bytecodeSize)\n  dup1\n  bytecodeSize\n  dup4\n  codecopy\n  dup2\n  dup2\n  add\n  0x40\n  mstore\n  dup2\n  add\n  swap1\n  tag_2\n  swap2\n  swap1\n  tag_3\n  jump\t// in\ntag_2:\n    /* \"contracts/SelfDestructSender.sol\":889:890  0 */\n  0x00\n    /* \"contracts/SelfDestructSender.sol\":859:891  _etherVaultAddress != address(0) */\n  0xffffffffffffffffffffffffffffffffffffffff\n  and\n    /* \"contracts/SelfDestructSender.sol\":859:877  _etherVaultAddress */\n  dup2\n    /* \"contracts/SelfDestructSender.sol\":859:891  _etherVaultAddress != address(0) */\n  0xffffffffffffffffffffffffffffffffffffffff\n  and\n  sub\n    /* \"contracts/SelfDestructSender.sol\":851:930  require(_etherVaultAddress != address(0), \"EtherVault address cannot be zero.\") */\n  tag_6\n  jumpi\n  mload(0x40)\n  0x08c379a000000000000000000000000000000000000000000000000000000000\n  dup2\n  mstore\n  0x04\n  add\n  tag_7\n  swap1\n  tag_8\n  jump\t// in\ntag_7:\n  mload(0x40)\n  dup1\n  swap2\n  sub\n  swap1\n  revert\ntag_6:\n    /* \"contracts/SelfDestructSender.sol\":961:979  _etherVaultAddress */\n  dup1\n    /* \"contracts/SelfDestructSender.sol\":941:979  etherVaultAddress = _etherVaultAddress */\n  0xffffffffffffffffffffffffffffffffffffffff\n  and\n  0x80\n  dup2\n  0xffffffffffffffffffffffffffffffffffffffff\n  and\n  dup2\n  mstore\n  pop\n  pop\n    /* \"contracts/SelfDestructSender.sol\":792:987  constructor(address payable _etherVaultAddress) {... */\n  pop\n    /* \"contracts/SelfDestructSender.sol\":324:2945  contract SelfDestructSender {... */\n  jump(tag_9)\n    /* \"#utility.yul\":88:205   */\ntag_11:\n    /* \"#utility.yul\":197:198   */\n  0x00\n    /* \"#utility.yul\":194:195   */\n  0x00\n    /* \"#utility.yul\":187:199   */\n  revert\n    /* \"#utility.yul\":334:460   */\ntag_13:\n    /* \"#utility.yul\":371:378   */\n  0x00\n    /* \"#utility.yul\":411:453   */\n  0xffffffffffffffffffffffffffffffffffffffff\n    /* \"#utility.yul\":404:409   */\n  dup3\n    /* \"#utility.yul\":400:454   */\n  and\n    /* \"#utility.yul\":389:454   */\n  swap1\n  pop\n    /* \"#utility.yul\":334:460   */\n  swap2\n  swap1\n  pop\n  jump\t// out\n    /* \"#utility.yul\":466:570   */\ntag_14:\n    /* \"#utility.yul\":511:518   */\n  0x00\n    /* \"#utility.yul\":540:564   */\n  tag_26\n    /* \"#utility.yul\":558:563   */\n  dup3\n    /* \"#utility.yul\":540:564   */\n  tag_13\n  jump\t// in\ntag_26:\n    /* \"#utility.yul\":529:564   */\n  swap1\n  pop\n    /* \"#utility.yul\":466:570   */\n  swap2\n  swap1\n  pop\n  jump\t// out\n    /* \"#utility.yul\":576:714   */\ntag_15:\n    /* \"#utility.yul\":657:689   */\n  tag_28\n    /* \"#utility.yul\":683:688   */\n  dup2\n    /* \"#utility.yul\":657:689   */\n  tag_14\n  jump\t// in\ntag_28:\n    /* \"#utility.yul\":650:655   */\n  dup2\n    /* \"#utility.yul\":647:690   */\n  eq\n    /* \"#utility.yul\":637:708   */\n  tag_29\n  jumpi\n    /* \"#utility.yul\":704:705   */\n  0x00\n    /* \"#utility.yul\":701:702   */\n  0x00\n    /* \"#utility.yul\":694:706   */\n  revert\n    /* \"#utility.yul\":637:708   */\ntag_29:\n    /* \"#utility.yul\":576:714   */\n  pop\n  jump\t// out\n    /* \"#utility.yul\":720:879   */\ntag_16:\n    /* \"#utility.yul\":785:790   */\n  0x00\n    /* \"#utility.yul\":816:822   */\n  dup2\n    /* \"#utility.yul\":810:823   */\n  mload\n    /* \"#utility.yul\":801:823   */\n  swap1\n  pop\n    /* \"#utility.yul\":832:873   */\n  tag_31\n    /* \"#utility.yul\":867:872   */\n  dup2\n    /* \"#utility.yul\":832:873   */\n  tag_15\n  jump\t// in\ntag_31:\n    /* \"#utility.yul\":720:879   */\n  swap3\n  swap2\n  pop\n  pop\n  jump\t// out\n    /* \"#utility.yul\":885:1252   */\ntag_3:\n    /* \"#utility.yul\":963:969   */\n  0x00\n    /* \"#utility.yul\":1012:1014   */\n  0x20\n    /* \"#utility.yul\":1000:1009   */\n  dup3\n    /* \"#utility.yul\":991:998   */\n  dup5\n    /* \"#utility.yul\":987:1010   */\n  sub\n    /* \"#utility.yul\":983:1015   */\n  slt\n    /* \"#utility.yul\":980:1099   */\n  iszero\n  tag_33\n  jumpi\n    /* \"#utility.yul\":1018:1097   */\n  tag_34\n  tag_11\n  jump\t// in\ntag_34:\n    /* \"#utility.yul\":980:1099   */\ntag_33:\n    /* \"#utility.yul\":1138:1139   */\n  0x00\n    /* \"#utility.yul\":1163:1235   */\n  tag_35\n    /* \"#utility.yul\":1227:1234   */\n  dup5\n    /* \"#utility.yul\":1218:1224   */\n  dup3\n    /* \"#utility.yul\":1207:1216   */\n  dup6\n    /* \"#utility.yul\":1203:1225   */\n  add\n    /* \"#utility.yul\":1163:1235   */\n  tag_16\n  jump\t// in\ntag_35:\n    /* \"#utility.yul\":1153:1235   */\n  swap2\n  pop\n    /* \"#utility.yul\":1109:1245   */\n  pop\n    /* \"#utility.yul\":885:1252   */\n  swap3\n  swap2\n  pop\n  pop\n  jump\t// out\n    /* \"#utility.yul\":1258:1427   */\ntag_17:\n    /* \"#utility.yul\":1342:1353   */\n  0x00\n    /* \"#utility.yul\":1376:1382   */\n  dup3\n    /* \"#utility.yul\":1371:1374   */\n  dup3\n    /* \"#utility.yul\":1364:1383   */\n  mstore\n    /* \"#utility.yul\":1416:1420   */\n  0x20\n    /* \"#utility.yul\":1411:1414   */\n  dup3\n    /* \"#utility.yul\":1407:1421   */\n  add\n    /* \"#utility.yul\":1392:1421   */\n  swap1\n  pop\n    /* \"#utility.yul\":1258:1427   */\n  swap3\n  swap2\n  pop\n  pop\n  jump\t// out\n    /* \"#utility.yul\":1433:1654   */\ntag_18:\n    /* \"#utility.yul\":1573:1607   */\n  0x45746865725661756c7420616464726573732063616e6e6f74206265207a6572\n    /* \"#utility.yul\":1569:1570   */\n  0x00\n    /* \"#utility.yul\":1561:1567   */\n  dup3\n    /* \"#utility.yul\":1557:1571   */\n  add\n    /* \"#utility.yul\":1550:1608   */\n  mstore\n    /* \"#utility.yul\":1642:1646   */\n  0x6f2e000000000000000000000000000000000000000000000000000000000000\n    /* \"#utility.yul\":1637:1639   */\n  0x20\n    /* \"#utility.yul\":1629:1635   */\n  dup3\n    /* \"#utility.yul\":1625:1640   */\n  add\n    /* \"#utility.yul\":1618:1647   */\n  mstore\n    /* \"#utility.yul\":1433:1654   */\n  pop\n  jump\t// out\n    /* \"#utility.yul\":1660:2026   */\ntag_19:\n    /* \"#utility.yul\":1802:1805   */\n  0x00\n    /* \"#utility.yul\":1823:1890   */\n  tag_39\n    /* \"#utility.yul\":1887:1889   */\n  0x22\n    /* \"#utility.yul\":1882:1885   */\n  dup4\n    /* \"#utility.yul\":1823:1890   */\n  tag_17\n  jump\t// in\ntag_39:\n    /* \"#utility.yul\":1816:1890   */\n  swap2\n  pop\n    /* \"#utility.yul\":1899:1992   */\n  tag_40\n    /* \"#utility.yul\":1988:1991   */\n  dup3\n    /* \"#utility.yul\":1899:1992   */\n  tag_18\n  jump\t// in\ntag_40:\n    /* \"#utility.yul\":2017:2019   */\n  0x40\n    /* \"#utility.yul\":2012:2015   */\n  dup3\n    /* \"#utility.yul\":2008:2020   */\n  add\n    /* \"#utility.yul\":2001:2020   */\n  swap1\n  pop\n    /* \"#utility.yul\":1660:2026   */\n  swap2\n  swap1\n  pop\n  jump\t// out\n    /* \"#utility.yul\":2032:2451   */\ntag_8:\n    /* \"#utility.yul\":2198:2202   */\n  0x00\n    /* \"#utility.yul\":2236:2238   */\n  0x20\n    /* \"#utility.yul\":2225:2234   */\n  dup3\n    /* \"#utility.yul\":2221:2239   */\n  add\n    /* \"#utility.yul\":2213:2239   */\n  swap1\n  pop\n    /* \"#utility.yul\":2285:2294   */\n  dup2\n    /* \"#utility.yul\":2279:2283   */\n  dup2\n    /* \"#utility.yul\":2275:2295   */\n  sub\n    /* \"#utility.yul\":2271:2272   */\n  0x00\n    /* \"#utility.yul\":2260:2269   */\n  dup4\n    /* \"#utility.yul\":2256:2273   */\n  add\n    /* \"#utility.yul\":2249:2296   */\n  mstore\n    /* \"#utility.yul\":2313:2444   */\n  tag_42\n    /* \"#utility.yul\":2439:2443   */\n  dup2\n    /* \"#utility.yul\":2313:2444   */\n  tag_19\n  jump\t// in\ntag_42:\n    /* \"#utility.yul\":2305:2444   */\n  swap1\n  pop\n    /* \"#utility.yul\":2032:2451   */\n  swap2\n  swap1\n  pop\n  jump\t// out\n    /* \"contracts/SelfDestructSender.sol\":324:2945  contract SelfDestructSender {... */\ntag_9:\n  mload(0x80)\n  codecopy(0x00, dataOffset(sub_0), dataSize(sub_0))\n  0x00\n  assignImmutable(\"0x13600b294191fc92924bb3ce4b969c1e7e2bab8f4c93c3fc6d0a51733df3c060\")\n  return(0x00, dataSize(sub_0))\nstop\n\nsub_0: assembly {\n        /* \"contracts/SelfDestructSender.sol\":324:2945  contract SelfDestructSender {... */\n      mstore(0x40, 0x80)\n      jumpi(tag_1, lt(calldatasize, 0x04))\n      shr(0xe0, calldataload(0x00))\n      dup1\n      0x12065fe0\n      eq\n      tag_3\n      jumpi\n      dup1\n      0x1b3d34bc\n      eq\n      tag_4\n      jumpi\n      dup1\n      0x87e69625\n      eq\n      tag_5\n      jumpi\n      jump(tag_2)\n    tag_1:\n      jumpi(tag_2, calldatasize)\n      stop\n    tag_2:\n      revert(0x00, 0x00)\n        /* \"contracts/SelfDestructSender.sol\":2841:2942  function getBalance() external view returns (uint256) {... */\n    tag_3:\n      callvalue\n      dup1\n      iszero\n      tag_8\n      jumpi\n      revert(0x00, 0x00)\n    tag_8:\n      pop\n      tag_9\n      tag_10\n      jump\t// in\n    tag_9:\n      mload(0x40)\n      tag_11\n      swap2\n      swap1\n      tag_12\n      jump\t// in\n    tag_11:\n      mload(0x40)\n      dup1\n      swap2\n      sub\n      swap1\n      return\n        /* \"contracts/SelfDestructSender.sol\":2211:2740  function triggerSelfDestruct() external {... */\n    tag_4:\n      callvalue\n      dup1\n      iszero\n      tag_13\n      jumpi\n      revert(0x00, 0x00)\n    tag_13:\n      pop\n      tag_14\n      tag_15\n      jump\t// in\n    tag_14:\n      stop\n        /* \"contracts/SelfDestructSender.sol\":567:621  uint256 public constant REQUIRED_AMOUNT = 0.0005 ether */\n    tag_5:\n      callvalue\n      dup1\n      iszero\n      tag_16\n      jumpi\n      revert(0x00, 0x00)\n    tag_16:\n      pop\n      tag_17\n      tag_18\n      jump\t// in\n    tag_17:\n      mload(0x40)\n      tag_19\n      swap2\n      swap1\n      tag_12\n      jump\t// in\n    tag_19:\n      mload(0x40)\n      dup1\n      swap2\n      sub\n      swap1\n      return\n        /* \"contracts/SelfDestructSender.sol\":2841:2942  function getBalance() external view returns (uint256) {... */\n    tag_10:\n        /* \"contracts/SelfDestructSender.sol\":2886:2893  uint256 */\n      0x00\n        /* \"contracts/SelfDestructSender.sol\":2913:2934  address(this).balance */\n      selfbalance\n        /* \"contracts/SelfDestructSender.sol\":2906:2934  return address(this).balance */\n      swap1\n      pop\n        /* \"contracts/SelfDestructSender.sol\":2841:2942  function getBalance() external view returns (uint256) {... */\n      swap1\n      jump\t// out\n        /* \"contracts/SelfDestructSender.sol\":2211:2740  function triggerSelfDestruct() external {... */\n    tag_15:\n        /* \"contracts/SelfDestructSender.sol\":609:621  0.0005 ether */\n      0x01c6bf52634000\n        /* \"contracts/SelfDestructSender.sol\":2431:2452  address(this).balance */\n      selfbalance\n        /* \"contracts/SelfDestructSender.sol\":2431:2471  address(this).balance == REQUIRED_AMOUNT */\n      eq\n        /* \"contracts/SelfDestructSender.sol\":2423:2506  require(address(this).balance == REQUIRED_AMOUNT, \"Must send exactly 0.0005 ether\") */\n      tag_22\n      jumpi\n      mload(0x40)\n      0x08c379a000000000000000000000000000000000000000000000000000000000\n      dup2\n      mstore\n      0x04\n      add\n      tag_23\n      swap1\n      tag_24\n      jump\t// in\n    tag_23:\n      mload(0x40)\n      dup1\n      swap2\n      sub\n      swap1\n      revert\n    tag_22:\n        /* \"contracts/SelfDestructSender.sol\":2714:2731  etherVaultAddress */\n      immutable(\"0x13600b294191fc92924bb3ce4b969c1e7e2bab8f4c93c3fc6d0a51733df3c060\")\n        /* \"contracts/SelfDestructSender.sol\":2701:2732  selfdestruct(etherVaultAddress) */\n      0xffffffffffffffffffffffffffffffffffffffff\n      and\n      selfdestruct\n        /* \"contracts/SelfDestructSender.sol\":567:621  uint256 public constant REQUIRED_AMOUNT = 0.0005 ether */\n    tag_18:\n        /* \"contracts/SelfDestructSender.sol\":609:621  0.0005 ether */\n      0x01c6bf52634000\n        /* \"contracts/SelfDestructSender.sol\":567:621  uint256 public constant REQUIRED_AMOUNT = 0.0005 ether */\n      dup2\n      jump\t// out\n        /* \"#utility.yul\":7:84   */\n    tag_25:\n        /* \"#utility.yul\":44:51   */\n      0x00\n        /* \"#utility.yul\":73:78   */\n      dup2\n        /* \"#utility.yul\":62:78   */\n      swap1\n      pop\n        /* \"#utility.yul\":7:84   */\n      swap2\n      swap1\n      pop\n      jump\t// out\n        /* \"#utility.yul\":90:208   */\n    tag_26:\n        /* \"#utility.yul\":177:201   */\n      tag_33\n        /* \"#utility.yul\":195:200   */\n      dup2\n        /* \"#utility.yul\":177:201   */\n      tag_25\n      jump\t// in\n    tag_33:\n        /* \"#utility.yul\":172:175   */\n      dup3\n        /* \"#utility.yul\":165:202   */\n      mstore\n        /* \"#utility.yul\":90:208   */\n      pop\n      pop\n      jump\t// out\n        /* \"#utility.yul\":214:436   */\n    tag_12:\n        /* \"#utility.yul\":307:311   */\n      0x00\n        /* \"#utility.yul\":345:347   */\n      0x20\n        /* \"#utility.yul\":334:343   */\n      dup3\n        /* \"#utility.yul\":330:348   */\n      add\n        /* \"#utility.yul\":322:348   */\n      swap1\n      pop\n        /* \"#utility.yul\":358:429   */\n      tag_35\n        /* \"#utility.yul\":426:427   */\n      0x00\n        /* \"#utility.yul\":415:424   */\n      dup4\n        /* \"#utility.yul\":411:428   */\n      add\n        /* \"#utility.yul\":402:408   */\n      dup5\n        /* \"#utility.yul\":358:429   */\n      tag_26\n      jump\t// in\n    tag_35:\n        /* \"#utility.yul\":214:436   */\n      swap3\n      swap2\n      pop\n      pop\n      jump\t// out\n        /* \"#utility.yul\":442:611   */\n    tag_27:\n        /* \"#utility.yul\":526:537   */\n      0x00\n        /* \"#utility.yul\":560:566   */\n      dup3\n        /* \"#utility.yul\":555:558   */\n      dup3\n        /* \"#utility.yul\":548:567   */\n      mstore\n        /* \"#utility.yul\":600:604   */\n      0x20\n        /* \"#utility.yul\":595:598   */\n      dup3\n        /* \"#utility.yul\":591:605   */\n      add\n        /* \"#utility.yul\":576:605   */\n      swap1\n      pop\n        /* \"#utility.yul\":442:611   */\n      swap3\n      swap2\n      pop\n      pop\n      jump\t// out\n        /* \"#utility.yul\":617:797   */\n    tag_28:\n        /* \"#utility.yul\":757:789   */\n      0x4d7573742073656e642065786163746c7920302e303030352065746865720000\n        /* \"#utility.yul\":753:754   */\n      0x00\n        /* \"#utility.yul\":745:751   */\n      dup3\n        /* \"#utility.yul\":741:755   */\n      add\n        /* \"#utility.yul\":734:790   */\n      mstore\n        /* \"#utility.yul\":617:797   */\n      pop\n      jump\t// out\n        /* \"#utility.yul\":803:1169   */\n    tag_29:\n        /* \"#utility.yul\":945:948   */\n      0x00\n        /* \"#utility.yul\":966:1033   */\n      tag_39\n        /* \"#utility.yul\":1030:1032   */\n      0x1e\n        /* \"#utility.yul\":1025:1028   */\n      dup4\n        /* \"#utility.yul\":966:1033   */\n      tag_27\n      jump\t// in\n    tag_39:\n        /* \"#utility.yul\":959:1033   */\n      swap2\n      pop\n        /* \"#utility.yul\":1042:1135   */\n      tag_40\n        /* \"#utility.yul\":1131:1134   */\n      dup3\n        /* \"#utility.yul\":1042:1135   */\n      tag_28\n      jump\t// in\n    tag_40:\n        /* \"#utility.yul\":1160:1162   */\n      0x20\n        /* \"#utility.yul\":1155:1158   */\n      dup3\n        /* \"#utility.yul\":1151:1163   */\n      add\n        /* \"#utility.yul\":1144:1163   */\n      swap1\n      pop\n        /* \"#utility.yul\":803:1169   */\n      swap2\n      swap1\n      pop\n      jump\t// out\n        /* \"#utility.yul\":1175:1594   */\n    tag_24:\n        /* \"#utility.yul\":1341:1345   */\n      0x00\n        /* \"#utility.yul\":1379:1381   */\n      0x20\n        /* \"#utility.yul\":1368:1377   */\n      dup3\n        /* \"#utility.yul\":1364:1382   */\n      add\n        /* \"#utility.yul\":1356:1382   */\n      swap1\n      pop\n        /* \"#utility.yul\":1428:1437   */\n      dup2\n        /* \"#utility.yul\":1422:1426   */\n      dup2\n        /* \"#utility.yul\":1418:1438   */\n      sub\n        /* \"#utility.yul\":1414:1415   */\n      0x00\n        /* \"#utility.yul\":1403:1412   */\n      dup4\n        /* \"#utility.yul\":1399:1416   */\n      add\n        /* \"#utility.yul\":1392:1439   */\n      mstore\n        /* \"#utility.yul\":1456:1587   */\n      tag_42\n        /* \"#utility.yul\":1582:1586   */\n      dup2\n        /* \"#utility.yul\":1456:1587   */\n      tag_29\n      jump\t// in\n    tag_42:\n        /* \"#utility.yul\":1448:1587   */\n      swap1\n      pop\n        /* \"#utility.yul\":1175:1594   */\n      swap2\n      swap1\n      pop\n      jump\t// out\n\n    auxdata: 0xa2646970667358221220cd54a525a81d639a418cafc50a0b162810ca1a3e39e7e50983fdb953f50e2e1864736f6c634300081e0033\n}\n",
				"bytecode": {
					"linkReferences": {},
					"object": "60a060405234801561000f575f5ffd5b5060405161043638038061043683398181016040528101906100319190610137565b5f73ffffffffffffffffffffffffffffffffffffffff168173ffffffffffffffffffffffffffffffffffffffff160361009f576040517f08c379a0000000000000000000000000000000000000000000000000000000008152600401610096906101e2565b60405180910390fd5b8073ffffffffffffffffffffffffffffffffffffffff1660808173ffffffffffffffffffffffffffffffffffffffff168152505050610200565b5f5ffd5b5f73ffffffffffffffffffffffffffffffffffffffff82169050919050565b5f610106826100dd565b9050919050565b610116816100fc565b8114610120575f5ffd5b50565b5f815190506101318161010d565b92915050565b5f6020828403121561014c5761014b6100d9565b5b5f61015984828501610123565b91505092915050565b5f82825260208201905092915050565b7f45746865725661756c7420616464726573732063616e6e6f74206265207a65725f8201527f6f2e000000000000000000000000000000000000000000000000000000000000602082015250565b5f6101cc602283610162565b91506101d782610172565b604082019050919050565b5f6020820190508181035f8301526101f9816101c0565b9050919050565b60805161021f6102175f395f60fe015261021f5ff3fe608060405260043610610037575f3560e01c806312065fe0146100425780631b3d34bc1461006c57806387e69625146100825761003e565b3661003e57005b5f5ffd5b34801561004d575f5ffd5b506100566100ac565b6040516100639190610158565b60405180910390f35b348015610077575f5ffd5b506100806100b3565b005b34801561008d575f5ffd5b50610096610135565b6040516100a39190610158565b60405180910390f35b5f47905090565b6601c6bf5263400047146100fc576040517f08c379a00000000000000000000000000000000000000000000000000000000081526004016100f3906101cb565b60405180910390fd5b7f000000000000000000000000000000000000000000000000000000000000000073ffffffffffffffffffffffffffffffffffffffff16ff5b6601c6bf5263400081565b5f819050919050565b61015281610140565b82525050565b5f60208201905061016b5f830184610149565b92915050565b5f82825260208201905092915050565b7f4d7573742073656e642065786163746c7920302e3030303520657468657200005f82015250565b5f6101b5601e83610171565b91506101c082610181565b602082019050919050565b5f6020820190508181035f8301526101e2816101a9565b905091905056fea2646970667358221220cd54a525a81d639a418cafc50a0b162810ca1a3e39e7e50983fdb953f50e2e1864736f6c634300081e0033",
					"opcodes": "PUSH1 0xA0 PUSH1 0x40 MSTORE CALLVALUE DUP1 ISZERO PUSH2 0xF JUMPI PUSH0 PUSH0 REVERT JUMPDEST POP PUSH1 0x40 MLOAD PUSH2 0x436 CODESIZE SUB DUP1 PUSH2 0x436 DUP4 CODECOPY DUP2 DUP2 ADD PUSH1 0x40 MSTORE DUP2 ADD SWAP1 PUSH2 0x31 SWAP2 SWAP1 PUSH2 0x137 JUMP JUMPDEST PUSH0 PUSH20 0xFFFFFFFFFFFFFFFFFFFFFFFFFFFFFFFFFFFFFFFF AND DUP2 PUSH20 0xFFFFFFFFFFFFFFFFFFFFFFFFFFFFFFFFFFFFFFFF AND SUB PUSH2 0x9F JUMPI PUSH1 0x40 MLOAD PUSH32 0x8C379A000000000000000000000000000000000000000000000000000000000 DUP2 MSTORE PUSH1 0x4 ADD PUSH2 0x96 SWAP1 PUSH2 0x1E2 JUMP JUMPDEST PUSH1 0x40 MLOAD DUP1 SWAP2 SUB SWAP1 REVERT JUMPDEST DUP1 PUSH20 0xFFFFFFFFFFFFFFFFFFFFFFFFFFFFFFFFFFFFFFFF AND PUSH1 0x80 DUP2 PUSH20 0xFFFFFFFFFFFFFFFFFFFFFFFFFFFFFFFFFFFFFFFF AND DUP2 MSTORE POP POP POP PUSH2 0x200 JUMP JUMPDEST PUSH0 PUSH0 REVERT JUMPDEST PUSH0 PUSH20 0xFFFFFFFFFFFFFFFFFFFFFFFFFFFFFFFFFFFFFFFF DUP3 AND SWAP1 POP SWAP2 SWAP1 POP JUMP JUMPDEST PUSH0 PUSH2 0x106 DUP3 PUSH2 0xDD JUMP JUMPDEST SWAP1 POP SWAP2 SWAP1 POP JUMP JUMPDEST PUSH2 0x116 DUP2 PUSH2 0xFC JUMP JUMPDEST DUP2 EQ PUSH2 0x120 JUMPI PUSH0 PUSH0 REVERT JUMPDEST POP JUMP JUMPDEST PUSH0 DUP2 MLOAD SWAP1 POP PUSH2 0x131 DUP2 PUSH2 0x10D JUMP JUMPDEST SWAP3 SWAP2 POP POP JUMP JUMPDEST PUSH0 PUSH1 0x20 DUP3 DUP5 SUB SLT ISZERO PUSH2 0x14C JUMPI PUSH2 0x14B PUSH2 0xD9 JUMP JUMPDEST JUMPDEST PUSH0 PUSH2 0x159 DUP5 DUP3 DUP6 ADD PUSH2 0x123 JUMP JUMPDEST SWAP2 POP POP SWAP3 SWAP2 POP POP JUMP JUMPDEST PUSH0 DUP3 DUP3 MSTORE PUSH1 0x20 DUP3 ADD SWAP1 POP SWAP3 SWAP2 POP POP JUMP JUMPDEST PUSH32 0x45746865725661756C7420616464726573732063616E6E6F74206265207A6572 PUSH0 DUP3 ADD MSTORE PUSH32 0x6F2E000000000000000000000000000000000000000000000000000000000000 PUSH1 0x20 DUP3 ADD MSTORE POP JUMP JUMPDEST PUSH0 PUSH2 0x1CC PUSH1 0x22 DUP4 PUSH2 0x162 JUMP JUMPDEST SWAP2 POP PUSH2 0x1D7 DUP3 PUSH2 0x172 JUMP JUMPDEST PUSH1 0x40 DUP3 ADD SWAP1 POP SWAP2 SWAP1 POP JUMP JUMPDEST PUSH0 PUSH1 0x20 DUP3 ADD SWAP1 POP DUP2 DUP2 SUB PUSH0 DUP4 ADD MSTORE PUSH2 0x1F9 DUP2 PUSH2 0x1C0 JUMP JUMPDEST SWAP1 POP SWAP2 SWAP1 POP JUMP JUMPDEST PUSH1 0x80 MLOAD PUSH2 0x21F PUSH2 0x217 PUSH0 CODECOPY PUSH0 PUSH1 0xFE ADD MSTORE PUSH2 0x21F PUSH0 RETURN INVALID PUSH1 0x80 PUSH1 0x40 MSTORE PUSH1 0x4 CALLDATASIZE LT PUSH2 0x37 JUMPI PUSH0 CALLDATALOAD PUSH1 0xE0 SHR DUP1 PUSH4 0x12065FE0 EQ PUSH2 0x42 JUMPI DUP1 PUSH4 0x1B3D34BC EQ PUSH2 0x6C JUMPI DUP1 PUSH4 0x87E69625 EQ PUSH2 0x82 JUMPI PUSH2 0x3E JUMP JUMPDEST CALLDATASIZE PUSH2 0x3E JUMPI STOP JUMPDEST PUSH0 PUSH0 REVERT JUMPDEST CALLVALUE DUP1 ISZERO PUSH2 0x4D JUMPI PUSH0 PUSH0 REVERT JUMPDEST POP PUSH2 0x56 PUSH2 0xAC JUMP JUMPDEST PUSH1 0x40 MLOAD PUSH2 0x63 SWAP2 SWAP1 PUSH2 0x158 JUMP JUMPDEST PUSH1 0x40 MLOAD DUP1 SWAP2 SUB SWAP1 RETURN JUMPDEST CALLVALUE DUP1 ISZERO PUSH2 0x77 JUMPI PUSH0 PUSH0 REVERT JUMPDEST POP PUSH2 0x80 PUSH2 0xB3 JUMP JUMPDEST STOP JUMPDEST CALLVALUE DUP1 ISZERO PUSH2 0x8D JUMPI PUSH0 PUSH0 REVERT JUMPDEST POP PUSH2 0x96 PUSH2 0x135 JUMP JUMPDEST PUSH1 0x40 MLOAD PUSH2 0xA3 SWAP2 SWAP1 PUSH2 0x158 JUMP JUMPDEST PUSH1 0x40 MLOAD DUP1 SWAP2 SUB SWAP1 RETURN JUMPDEST PUSH0 SELFBALANCE SWAP1 POP SWAP1 JUMP JUMPDEST PUSH7 0x1C6BF52634000 SELFBALANCE EQ PUSH2 0xFC JUMPI PUSH1 0x40 MLOAD PUSH32 0x8C379A000000000000000000000000000000000000000000000000000000000 DUP2 MSTORE PUSH1 0x4 ADD PUSH2 0xF3 SWAP1 PUSH2 0x1CB JUMP JUMPDEST PUSH1 0x40 MLOAD DUP1 SWAP2 SUB SWAP1 REVERT JUMPDEST PUSH32 0x0 PUSH20 0xFFFFFFFFFFFFFFFFFFFFFFFFFFFFFFFFFFFFFFFF AND SELFDESTRUCT JUMPDEST PUSH7 0x1C6BF52634000 DUP2 JUMP JUMPDEST PUSH0 DUP2 SWAP1 POP SWAP2 SWAP1 POP JUMP JUMPDEST PUSH2 0x152 DUP2 PUSH2 0x140 JUMP JUMPDEST DUP3 MSTORE POP POP JUMP JUMPDEST PUSH0 PUSH1 0x20 DUP3 ADD SWAP1 POP PUSH2 0x16B PUSH0 DUP4 ADD DUP5 PUSH2 0x149 JUMP JUMPDEST SWAP3 SWAP2 POP POP JUMP JUMPDEST PUSH0 DUP3 DUP3 MSTORE PUSH1 0x20 DUP3 ADD SWAP1 POP SWAP3 SWAP2 POP POP JUMP JUMPDEST PUSH32 0x4D7573742073656E642065786163746C7920302E303030352065746865720000 PUSH0 DUP3 ADD MSTORE POP JUMP JUMPDEST PUSH0 PUSH2 0x1B5 PUSH1 0x1E DUP4 PUSH2 0x171 JUMP JUMPDEST SWAP2 POP PUSH2 0x1C0 DUP3 PUSH2 0x181 JUMP JUMPDEST PUSH1 0x20 DUP3 ADD SWAP1 POP SWAP2 SWAP1 POP JUMP JUMPDEST PUSH0 PUSH1 0x20 DUP3 ADD SWAP1 POP DUP2 DUP2 SUB PUSH0 DUP4 ADD MSTORE PUSH2 0x1E2 DUP2 PUSH2 0x1A9 JUMP JUMPDEST SWAP1 POP SWAP2 SWAP1 POP JUMP INVALID LOG2 PUSH5 0x6970667358 0x22 SLT KECCAK256 0xCD SLOAD 0xA5 0x25 0xA8 SAR PUSH4 0x9A418CAF 0xC5 EXP SIGNEXTEND AND 0x28 LT 0xCA BYTE RETURNDATACOPY CODECOPY SWAPN 0xE5 MULMOD DUP4 REVERT 0xB9 MSTORE8 CREATE2 0xE 0x2E XOR PUSH5 0x736F6C6343 STOP ADDMOD 0x1E STOP CALLER "
				},
				"gasEstimates": {
					"creation": {
						"codeDepositCost": "108600",
						"executionCost": "infinite",
						"totalCost": "infinite"
					},
					"external": {
						"REQUIRED_AMOUNT()": "347",
						"getBalance()": "312",
						"triggerSelfDestruct()": "infinite"
					}
				},
				"methodIdentifiers": {
					"REQUIRED_AMOUNT()": "87e69625",
					"getBalance()": "12065fe0",
					"triggerSelfDestruct()": "1b3d34bc"
				}
			},
			"storageLayout": {
				"storage": [],
				"types": null
			},
			"userdoc": {
				"kind": "user",
				"methods": {},
				"version": 1
			}
		}
	}
}